{
  "_format": "hh-sol-artifact-1",
  "contractName": "ComodityContract",
  "sourceName": "contracts/Comodity_Contract.sol",
  "abi": [
    {
      "inputs": [
        {
          "internalType": "string",
          "name": "name",
          "type": "string"
        },
        {
          "internalType": "string",
          "name": "expirationDate",
          "type": "string"
        },
        {
          "internalType": "string",
          "name": "farm_name",
          "type": "string"
        },
        {
          "internalType": "uint128",
          "name": "price",
          "type": "uint128"
        },
        {
          "internalType": "uint128",
          "name": "unit_kg",
          "type": "uint128"
        },
        {
          "internalType": "uint128",
          "name": "unit_total",
          "type": "uint128"
        }
      ],
      "stateMutability": "nonpayable",
      "type": "constructor"
    },
    {
      "inputs": [
        {
          "internalType": "uint128",
          "name": "buyAmount",
          "type": "uint128"
        },
        {
          "internalType": "uint256",
          "name": "ComodityNFTAddress",
          "type": "uint256"
        }
      ],
      "name": "addBuyer",
      "outputs": [
        {
          "internalType": "uint32",
          "name": "",
          "type": "uint32"
        }
      ],
      "stateMutability": "nonpayable",
      "type": "function"
    },
    {
      "inputs": [
        {
          "internalType": "uint128",
          "name": "approveAmount",
          "type": "uint128"
        },
        {
          "internalType": "uint32",
          "name": "requestID",
          "type": "uint32"
        }
      ],
      "name": "approveBuyer",
      "outputs": [
        {
          "internalType": "bool",
          "name": "",
          "type": "bool"
        }
      ],
      "stateMutability": "nonpayable",
      "type": "function"
    },
    {
      "inputs": [
        {
          "internalType": "uint128",
          "name": "buyAmount",
          "type": "uint128"
        }
      ],
      "name": "checkAmount",
      "outputs": [
        {
          "internalType": "bool",
          "name": "",
          "type": "bool"
        }
      ],
      "stateMutability": "view",
      "type": "function"
    },
    {
      "inputs": [],
      "name": "owner",
      "outputs": [
        {
          "internalType": "address",
          "name": "",
          "type": "address"
        }
      ],
      "stateMutability": "view",
      "type": "function"
    }
  ],
  "bytecode": "0x60806040523480156200001157600080fd5b5060405162000ebb38038062000ebb833981810160405281019062000037919062000377565b336000806101000a81548173ffffffffffffffffffffffffffffffffffffffff021916908373ffffffffffffffffffffffffffffffffffffffff1602179055508560016000019080519060200190620000929291906200023e565b5084600180019080519060200190620000ad9291906200023e565b5082600160020160006101000a8154816fffffffffffffffffffffffffffffffff02191690836fffffffffffffffffffffffffffffffff16021790555081600160020160106101000a8154816fffffffffffffffffffffffffffffffff02191690836fffffffffffffffffffffffffffffffff16021790555080600160030160006101000a8154816fffffffffffffffffffffffffffffffff02191690836fffffffffffffffffffffffffffffffff1602179055506000600160030160106101000a8154816fffffffffffffffffffffffffffffffff02191690836fffffffffffffffffffffffffffffffff1602179055508360056000019080519060200190620001ba9291906200023e565b506000600560010160006101000a81548160ff021916908360028111156200020b577f4e487b7100000000000000000000000000000000000000000000000000000000600052602160045260246000fd5b02179055506000600760006101000a81548163ffffffff021916908363ffffffff160217905550505050505050620005fe565b8280546200024c9062000509565b90600052602060002090601f016020900481019282620002705760008555620002bc565b82601f106200028b57805160ff1916838001178555620002bc565b82800160010185558215620002bc579182015b82811115620002bb5782518255916020019190600101906200029e565b5b509050620002cb9190620002cf565b5090565b5b80821115620002ea576000816000905550600101620002d0565b5090565b600062000305620002ff8462000481565b62000458565b9050828152602081018484840111156200031e57600080fd5b6200032b848285620004d3565b509392505050565b600082601f8301126200034557600080fd5b815162000357848260208601620002ee565b91505092915050565b6000815190506200037181620005e4565b92915050565b60008060008060008060c087890312156200039157600080fd5b600087015167ffffffffffffffff811115620003ac57600080fd5b620003ba89828a0162000333565b965050602087015167ffffffffffffffff811115620003d857600080fd5b620003e689828a0162000333565b955050604087015167ffffffffffffffff8111156200040457600080fd5b6200041289828a0162000333565b94505060606200042589828a0162000360565b93505060806200043889828a0162000360565b92505060a06200044b89828a0162000360565b9150509295509295509295565b60006200046462000477565b90506200047282826200053f565b919050565b6000604051905090565b600067ffffffffffffffff8211156200049f576200049e620005a4565b5b620004aa82620005d3565b9050602081019050919050565b60006fffffffffffffffffffffffffffffffff82169050919050565b60005b83811015620004f3578082015181840152602081019050620004d6565b8381111562000503576000848401525b50505050565b600060028204905060018216806200052257607f821691505b6020821081141562000539576200053862000575565b5b50919050565b6200054a82620005d3565b810181811067ffffffffffffffff821117156200056c576200056b620005a4565b5b80604052505050565b7f4e487b7100000000000000000000000000000000000000000000000000000000600052602260045260246000fd5b7f4e487b7100000000000000000000000000000000000000000000000000000000600052604160045260246000fd5b6000601f19601f8301169050919050565b620005ef81620004b7565b8114620005fb57600080fd5b50565b6108ad806200060e6000396000f3fe608060405234801561001057600080fd5b506004361061004c5760003560e01c806319a07a47146100515780633810c0c9146100815780638da5cb5b146100b1578063c79f7945146100cf575b600080fd5b61006b60048036038101906100669190610621565b6100ff565b60405161007891906106a5565b60405180910390f35b61009b600480360381019061009691906105e5565b610292565b6040516100a891906106c0565b60405180910390f35b6100b96104dc565b6040516100c6919061068a565b60405180910390f35b6100e960048036038101906100e491906105bc565b610500565b6040516100f691906106a5565b60405180910390f35b600080836fffffffffffffffffffffffffffffffff161161011f57600080fd5b600160030160109054906101000a90046fffffffffffffffffffffffffffffffff16600160030160009054906101000a90046fffffffffffffffffffffffffffffffff1661016d919061075b565b6fffffffffffffffffffffffffffffffff16836fffffffffffffffffffffffffffffffff161061019c57600080fd5b600760009054906101000a900463ffffffff1663ffffffff168263ffffffff1611156101c757600080fd5b82600160030160109054906101000a90046fffffffffffffffffffffffffffffffff166101f491906106db565b600160030160106101000a8154816fffffffffffffffffffffffffffffffff02191690836fffffffffffffffffffffffffffffffff16021790555082600860008463ffffffff1663ffffffff16815260200190815260200160002060010160006101000a8154816fffffffffffffffffffffffffffffffff02191690836fffffffffffffffffffffffffffffffff1602179055506001905092915050565b600080836fffffffffffffffffffffffffffffffff16116102b257600080fd5b600160030160109054906101000a90046fffffffffffffffffffffffffffffffff16600160030160009054906101000a90046fffffffffffffffffffffffffffffffff16610300919061075b565b6fffffffffffffffffffffffffffffffff16836fffffffffffffffffffffffffffffffff161061032f57600080fd5b6000600760009054906101000a900463ffffffff16905060405180608001604052803373ffffffffffffffffffffffffffffffffffffffff16815260200160006fffffffffffffffffffffffffffffffff168152602001856fffffffffffffffffffffffffffffffff16815260200184815250600860008363ffffffff1663ffffffff16815260200190815260200160002060008201518160000160006101000a81548173ffffffffffffffffffffffffffffffffffffffff021916908373ffffffffffffffffffffffffffffffffffffffff16021790555060208201518160010160006101000a8154816fffffffffffffffffffffffffffffffff02191690836fffffffffffffffffffffffffffffffff16021790555060408201518160010160106101000a8154816fffffffffffffffffffffffffffffffff02191690836fffffffffffffffffffffffffffffffff160217905550606082015181600201559050506001600760009054906101000a900463ffffffff166104b29190610721565b600760006101000a81548163ffffffff021916908363ffffffff1602179055508091505092915050565b60008054906101000a900473ffffffffffffffffffffffffffffffffffffffff1681565b6000600160030160109054906101000a90046fffffffffffffffffffffffffffffffff16600160030160009054906101000a90046fffffffffffffffffffffffffffffffff16610550919061075b565b6fffffffffffffffffffffffffffffffff16826fffffffffffffffffffffffffffffffff16109050919050565b60008135905061058c81610832565b92915050565b6000813590506105a181610849565b92915050565b6000813590506105b681610860565b92915050565b6000602082840312156105ce57600080fd5b60006105dc8482850161057d565b91505092915050565b600080604083850312156105f857600080fd5b60006106068582860161057d565b925050602061061785828601610592565b9150509250929050565b6000806040838503121561063457600080fd5b60006106428582860161057d565b9250506020610653858286016105a7565b9150509250929050565b6106668161078f565b82525050565b610675816107a1565b82525050565b610684816107f3565b82525050565b600060208201905061069f600083018461065d565b92915050565b60006020820190506106ba600083018461066c565b92915050565b60006020820190506106d5600083018461067b565b92915050565b60006106e6826107ad565b91506106f1836107ad565b9250826fffffffffffffffffffffffffffffffff0382111561071657610715610803565b5b828201905092915050565b600061072c826107f3565b9150610737836107f3565b92508263ffffffff038211156107505761074f610803565b5b828201905092915050565b6000610766826107ad565b9150610771836107ad565b92508282101561078457610783610803565b5b828203905092915050565b600061079a826107c9565b9050919050565b60008115159050919050565b60006fffffffffffffffffffffffffffffffff82169050919050565b600073ffffffffffffffffffffffffffffffffffffffff82169050919050565b6000819050919050565b600063ffffffff82169050919050565b7f4e487b7100000000000000000000000000000000000000000000000000000000600052601160045260246000fd5b61083b816107ad565b811461084657600080fd5b50565b610852816107e9565b811461085d57600080fd5b50565b610869816107f3565b811461087457600080fd5b5056fea264697066735822122029b2149a9de1cca261b260424e82a3950ad4537cf5ba1400a9ca6c2f7dc2f60764736f6c63430008040033",
  "linkReferences": {},
  "deployedLinkReferences": {}
}